:400000000080002011000000B5030000B503000008B5044B1A6803F53F5302331A6000F0E9F900BFFA46004010B5054C237833B9044B13B10448AFF300800123237010BD25
:400040008881FF1F00000000F0370000084B10B51BB108480849AFF300800848036803B910BD074B002BFBD0BDE81040184700BF00000000F03700008C81FF1F0881FF1FF3
:400080000000000010B5134B1B7833B9124C134B07CB20606160A26009E0114BD3E9000102F034FF02460C480E4902F097FF0120002100F087FD0C4800F01CFD01200021D6
:4000C00000F080FD044800F015FD0022014B1A7010BD00BFC081FF1FE881FF1FF8370000C881FF1F043800001038000010B501F02DF802460A4B18700A4C20460A4902F0C0
:400100006DFF0020014600F05DFD084800F0F2FC0020014600F056FD204600F0EBFC10BDA481FF1FE881FF1F203800001038000038B51D4BD3E9000115A3D3E9002302F0BB
:400140004BFC1A4BC3E9000100224FF0804301F057F904460D46204629460022144B02F087FA01F0C5FA0022124B02F035FC124BC3E9000108A3D3E9002302F02DFC08A3AF
:40018000D3E9002302F074FA0C4BC3E9000138BDC3F5285C8FC2D53FE09C11A5BDC1F23F2575029A080B4840E081FF1FD881FF1F0000A2400000E03FD081FF1FC881FF1FE7
:4001C00008B50A4B1B787BB90122084B1A7000F013FF02F08BFB0022054B02F027FD054BC3E90001FFF7A4FF08BD00BFC081FF1F00001840E081FF1F10B5074C607800F0F4
:40020000D5FF607800F0D8FF607801F04BF8607801F04EF810BD00BFA481FF1F08B5002000F0AAFF08BD00BF08B5094B1B783BB1084BD3E900010022074B02F053FE18B147
:40024000AA2000F099FF08BDFFF7E8FF08BD00BFC081FF1FC881FF1F0000694008B5552000F08AFF08BD00BF08B500F023FF00F0D5FA00F02DFF00F097FC012000F048FCE6
:4002800000F00AFF00F002FE00F09AFD00F0BAFA00F068FB00F05CFE00F0FEFC62B6414800F022FD404800F07FFE404801F08AF800F01CFF00F03CFF00F0CCFF01F046F8E3
:4002C000FFF7ACFF00223A4B1B786C2B07D06D2B09D06B2B0AD17F203549487006E0BF203349487002E0DC20314948707A2B04D1FFF79AFFFFF780FF00222D4B1B78772BA8
:4003000004D1FFF7ABFFFFF777FF0022284B1B78642B05D1A52000F02FFFFFF76DFF0022234B1B78712B05D15A2000F025FFFFF763FF00221E4B1B78732B04D1FFF76EFF9B
:40034000FFF75AFF00221A4B1B78612B12D1022A10D0012A0ED000F08BFF1E30C0B200F02BFF01F001F81E30C0B200F0A1FFFFF75BFF01220E4B1B78652BA4D1012AA2D001
:40038000022AA0D000F074FF1E30C0B200F00EFF00F0EAFF1E30C0B200F084FFFFF744FF022290E785000000C1010000ED000000A481FF1F08B502F0D1FD03680C2B00D13A
:4003C000FEE7FEE708B5094B1A681044084BC31A802B02DC054B186005E002F0BFFD0C2303604FF0FF32104608BD00BF0C81FF1FF881FF1F08B5104E104D16E029686B6848
:40040000AC68002204E051F8040B43F8040B0432A242F8D1E868002203E0002143F8041B04328242F9D11035013E002EE6D102F09BFDFFF719FFFEE7010000001439000055
:4004400008B5124A124B1A60124A136843F40073136000230AE0032B03D80F4A52F8231000E00E490E4A42F8231001332F2BF2D90C4B1A780C4B1A70094A0C4B1A6000F079
:40048000E7F800220A4B1A6008BD00BF0004FA050CED00E014ED00E000000000B50300000080FF1FBC7600400481FF1F08ED00E00081FF1FFEE700BFF0B40022174611E094
:4004C00050F82760F3B226F0FF0608E001EB420511F812406D78A5550132013BDBB2002BF4D101371F2FEBD9F0BC7047144B1B78DBB203F00701134A11701B09013213704D
:400500000222114B1A70402220331A700C2203F2FF631A70042203F5CA731A70012206331A70202202331A70102308490B7030310A70074A13704422064B1A70704700BF32
:40054000CF0100496E5800404D510040905A0040C45A00407658004008B50A46002102F034FD08BD38B501222B4B1A8018232B4A137005222A490A8002310B7002310A80F0
:40058000284A13704FF49C7102321180023213700222254B1A7008224FF040231A70032103F500731970214B1B78DBB220490B70204B1A8041F25122023B1A80002419259A
:4005C0000CE01D4B1B7803F0010343EA440404F003044FF4F07000F003FF013D0DB1032CEFD115B90320FFF765FF144B4FF480721A8007221A70002211490A704820023170
:4006000008701A700222033B1A700E4A137843F00F03137038BD00BF8040004082400040844000408A4000400043004008010049A146004022420040254200400440004092
:4006400006400040A243004008B502F0B3FC08BD70B572B6394A137843F00403137000240CE0374963001A1952000A4423445B00C8589188FFF770FF0134E4B2062CF0D9A8
:400680004FF090402F49FFF717FF03222E4B1A8002F1804202F5A832137843F0020313701032137843F002031370284C237843F040032370A2F58632513A137843F0100358
:4006C0001370234823490822FFF7BEFF224823490822FFF7B9FF224822490822FFF7B4FF214822490822FFF7AFFF214821490822FFF7AAFF204821490822FFF7A5FF204831
:4007000020490822FFF7A0FF44221F4B1A701F4A137843F0080313701D4E01253570FFF721FF812333701B4B1D70FFF7DFFE1A4821460E22FFF788FF70BD00BFE846004059
:40074000283800008000004848580040A043004002510040B4080048C2510040BC08004812510040C408004822510040CC08004832510040D408004842510040DC080048EC
:4007800062510040E4080048DB160140224300400048004004000840B0430040014B1880704700BF146A0040014B1880704700BF946A0040014B1880704700BF546A00402C
:4007C000014B1880704700BF746A004008B50C4A137843F0010313700132137843F00103137040F22B10FFF7D9FF40F22B10FFF7DBFF9620FFF7DEFF9620FFF7E1FF08BD5F
:400800009A65004008B5044B1B7823B9FFF7DEFF0122014B1A7008BDA681FF1F054A137843F0040313701032137843F004031370704700BFA243004010B5044605E0084B25
:40084000186800F0CDFDA4F50044B4F5004FF6D8034B586800FB04F000F0C2FD10BD00BF1081FF1F08B5034B1B7A03FB00F000F0B7FD08BD1081FF1F084A137843F00103FA
:4008800013701032137843F00103137002F5A5521E32137843F0800313707047A9430040044A137803F0FC0300F0030018431070704700BF0158004010B487B00446194BF8
:4008C00003AA1868596803C2197A11706A4653F80C0F596803C21B7A1370082C1ED812490B7803F08003DBB20B70087806AB1C4414F80C3C14F8182C920002F00C021343DA
:4009000003430B70094A137803F0F3031370117814F8183C0B4343F00C03137007B05DF8044B704754380000025800400158004010B50C22084B1A70084A137843F02003DC
:4009400013700024064B1C700220FFF7B5FF2046FFF7A6FF10BD00BF00580040015800400258004008B5054B1B7823B9FFF7E0FF0122024B1A70FFF77FFF08BDA781FF1F05
:4009800010B50B4C237803F09F032370237803F0F00323702378184340F0100020700120FFF760FF237803F0EF03237010BD00BF2051004038B505460E4C237843F0200335
:4009C0002370237803F0BF0323700020FFF74AFF237803F0F003237023781D4345F0100525700120FFF73EFF237803F0EF03237038BD00BF2051004070B5354B1A7802F03F
:400A00008002D2B21A7033490A7802F0F00242F00F020A7001310A7802F0F0020A7001310A7802F0F0020A701A7802F0DF021A701A7842F040021A704FF4CA760020FFF74B
:400A400011FF234D2B7843F010032B700120FFF709FF214B1C78E4B22B7803F0EF032B700020FFF7FFFE04F00804E4B22B7843F010032B700120FFF7F5FE2B7803F0EF03DB
:400A80002B7014B90A20FFF7EDFE013E0CB1002ED4D10F4A137803F0BF031370137803F08003DBB213700232137803F0F00313700132137803F0F00343F00F031370013200
:400AC000137803F0F00343F00F03137070BD00BF20510040225100402151004010B50446FFF78AFF2009FFF765FF04F00F00FFF761FF10BD38B505460078012404E0FFF7D5
:400B0000EDFF285D0134E4B20028F8D138BD00BF10B50446FFF770FF2009FFF731FF04F00F00FFF72DFF10BD08B52820FFF784FE0320FFF725FF0520FFF77EFE0320FFF7B5
:400B40001FFF0F20FFF778FE0320FFF719FF0120FFF772FE0220FFF713FF0520FFF76CFE0620FFF7D5FF0E20FFF7D2FF2C20FFF7CFFF0820FFF7CCFF0120FFF7C9FF0C206C
:400B8000FFF7C6FF0320FFF7C3FF0520FFF754FE08BD00BF08B50C20FFF7BAFF0122014B1A7008BDA881FF1F08B5054B5B7823B9FFF7BAFF0122024B5A70FFF7EBFF08BDC7
:400BC000A881FF1F08B5032819D8DFE800F002070D1381F08000FFF79BFF08BDA1F14000C0B2FFF795FF08BDA1F16C00C0B2FFF78FFF08BDA1F12C00C0B2FFF789FF08BDF0
:400C0000024A137843F080031370704777640040014B1870704700BF87640040014B1878704700BF67640040014B1860704700BF24640040014B1868704700BF44640040D4
:400C4000014B1860704700BF0464004008B501E0FFF7F0FFFFF7E2FF10F0080FF8D108BD10B50B4C2046FFF7DFFF2046FFF7E8FF00F0BEFB074A137843F01003137000F0BC
:400C8000BBFBFFF7E3FF0020FFF7C2FF10BD00BFBFD401009764004008B5054B1B7823B9FFF7DEFF0122024B1A70FFF7A9FF08BDAA81FF1F014B1B685864704708ED00E068
:400CC0004001C0B2014B1870704700BF01E400E00222014B1A60704700E100E00222014B1A60704780E100E010B50446FFF7F6FF2046FFF7DFFF0720FFF7E2FFFFF7E8FFDF
:400D000010BD00BF024A137843F08003137070477A650040014B1870704700BF89650040014B1878704700BF69650040014B1870704700BF09650040014B1878704700BF1F
:400D400049650040014B1870704700BF29650040014B1870704700BF3965004008B501E0FFF7EAFFFFF7DCFF10F0400FF8D108BD08B5114B1A7802F0F8021A701A7802F075
:400D8000FC021A70FFF7EAFF0A20FFF7DBFF0A20FFF7CCFF0020FFF7BDFFFFF7C1FF0020FFF7D6FF00F024FB044A137843F01003137000F021FB08BD7A6500409965004095
:400DC00008B5054B1B7823B9FFF7D2FF0122024B1A70FFF797FF08BDAB81FF1F054A137843F0010313701032137843F001031370704700BFA74300400F490B7803F0FC0294
:400E000000F0030313430B7001280AD10B4B1B78DBB20B4A13700B4B1B78DBB2013213707047094B1B78DBB2054A1370074B1B78DBB201321370704740580040100100495F
:400E40003046004014010049AD010049B501004908B50120FFF7D0FF0B4B1A7802F0DF021A701A7802F0FB021A701A7842F008021A7003F287231A7802F0E7021A701A78F5
:400E800042F010021A7008BD4058004008B5054B1B7823B9FFF7DCFF0122024B1A70FFF79DFF08BDAC81FF1F054A137843F0040313701032137843F004031370704700BF47
:400EC000A8430040054B1A7802F0FD021A701A7800F0020010431870704700BF28580040014B1870704700BF825B0040064B1B78C3F3810303F19243063393F82831DBB2DD
:400F0000024A1370704700BF285800400A46004008B5064B1A7802F0F3021A701A7800F00C0010431870FFF7E1FF08BD2858004008B50023054A1370013213700420FFF7C5
:400F4000E7FF0220FFF7BEFF08BD00BF2858004008B5074B1B7823B9FFF7EAFF0122044B1A70FFF7A1FFBB20FFF7BAFF08BD00BFAD81FF1F014B1B681864704708ED00E052
:400F80004001C0B2014B1870704700BF00E400E00122014B1A60704700E100E00122014B1A60704780E100E010B50446FFF7F6FF2046FFF7DFFF0720FFF7E2FFFFF7E8FF1F
:400FC00010BD00BF024A137843F080031370704776650040014B1870704700BF87650040014B1878704700BF67650040014B1860704700BF04650040024B1B78024B18681F
:40100000704700BF0465004044650040014B1868704700BF44650040014B1860704700BF24650040014B1860704700BF3465004008B501E0FFF7EAFFFFF7D2FF10F0400FD4
:40104000F8D108BD08B5124B1A7802F0F8021A701A7802F0FC021A70FFF7EAFF4FF0FF30FFF7DAFF0020FFF7C1FF0020FFF7B2FFFFF7B6FF4FF0FF30FFF7D4FF00F0B8F978
:40108000044A137843F01003137000F0B5F908BD766500409765004008B5054B1B7823B9FFF7D0FF0122024B1A70FFF78BFF08BDAE81FF1F054A137843F001031370103231
:4010C000137843F001031370704700BFA2430040054A137843F0020313701032137843F002031370704700BFA24300407222034B1A70202203F203131A7070478864004032
:4011000010B500F075F90446084A137843F02003137002F20312137843F01003137000F029F9204600F068F910BD00BF9864004008B5054B1B7823B9FFF7D8FF0122024BE5
:401140001A70FFF7DDFF08BDAF81FF1F084B1B78DBB213F0200F06D0064A1078C0B213F01E0F02D17047002070470020704700BF6B65004048650040014B1870704700BFCD
:4011800075650040024A137843F080031370704774640040014B1870704700BF03640040014B1870704700BF43640040014B1870704700BF23640040014B1870704700BFB9
:4011C00033640040014B1870704700BF84640040014B1878704700BF64640040014B1878704700BF5364004008B501E0FFF7F6FFFFF7EEFF10F0100FF8D108BD08B5134AD0
:40120000137803F0C00343F0090313701F32137843F001031370FF20FFF7BCFFFF20FFF7BFFF7F20FFF7C2FF7F20FFF7C5FF0020FFF7C8FF00F0DCF8054A137843F0100302
:40124000137000F0D9F8FFF7CFFF08BD746400409464004008B5054B1B7823B9FFF7CEFF0122024B1A70FFF78DFF08BDB081FF1F014B1878704700BF23640040024A137892
:4012800043F080031370704772640040014B1870704700BF02640040014B1870704700BF42640040014B1870704700BF22640040014B1870704700BF32640040014B187004
:4012C000704700BF82640040014B1878704700BF62640040014B1878704700BF5264004008B501E0FFF7F6FFFFF7EEFF10F0100FF8D108BD10B5134A137803F0C00343F003
:4013000009031370104C237843F001032370FF20FFF7BCFFFF20FFF7BFFF7F20FFF7C2FF7F20FFF7C5FF0020FFF7C8FF00F060F8237843F01003237000F05EF8FFF7D0FF67
:4013400010BD00BF726400409264004008B5054B1B7823B9FFF7CEFF0122024B1A70FFF78DFF08BDB181FF1F014B1878704700BF22640040054A137843F0080313701032D0
:40138000137843F008031370704700BFA2430040014B1B689864704708ED00E04001C0B2014B1870704700BF02E400E00422014B1A60704700E100E00422014B1A60704725
:4013C00080E100E010B50446FFF7F6FF2046FFF7DFFF0720FFF7E2FFFFF7E8FF10BD00BF0230800803D000BF01380046FCD17047EFF3108072B6704780F31088704700BFF0
:401400002DE9F04F8BB01F4680468946164600F0C7F9DFF8D8A204469AF900300D46013304D03046394600F0DBFF20B9204629460BB0BDE8F08F4046494600F0D1FF834673
:4014400060BB304639460022002301F02DFD0028ECD09AF900309E4C01229E4900208DE814005A1CCDF820B0CDE90289CDE90467CDE906010DD0022B0BD0684600F0DCFF30
:40148000002800F09380089B1BB101F067FD089B0360DDE906010BB0BDE8F08F404649460022002301F000FDF8B1304639460022002301F0F9FC834600284ED084489AF90C
:4014C00000300121002200240025CDE90289CDE90467CDE90645019000910892002BCCD07C4B0022CDE90623D3E72046294600F071FF834600285ED0204629460022002359
:4015000001F0D2FC002891D04046494600F062FF00288BD03046394600F05CFF002885D09AF900306A480421002200240025022BCDE90289CDE90467CDE906450190009106
:40154000089200F08880684600F076FF002800F08280089B002B9CD097E73046394600F039FF00283FF462AF304639460022002301F0A4FC00283FF459AF55499AF80030DD
:401580000122CDF820B0CDE90289CDE9046701910092002B3CD050490020022BCDE9060130D101F0DBFC21230360D2E701F0D6FC2123036067E74046494600F00BFF0028FB
:4015C0009AD03046394600F005FF002894D02046294600F005FF00BB3D4A9AF8004001230890CDE90289CDE90467019200937CB10020002102460B4601F018FB022CCDE9FC
:401600000601CED0684600F017FF0028A1D1C8E700220023CDE90623F4E72D499AF900300322CDF820B0CDE90289CDE9046701910092ABB9294D4FF060444046494600229C
:401640000023CDE9064501F039FC50BB9AF90030022B7FF478AF01F081FC2223036078E71F4D00244046494600220023CDE9064501F024FC0028E9D000221A4B30463946BD
:4016800001F0AAF904460D4600F0DEFE22462B4601F00AFC0028D9D10F4B0022CDE90623D4E700220F4B3046394601F095F904460D4600F0C9FE22462B4601F0F5FB00284F
:4016C000C4D1094B4FF06042CDE90623BEE700BF6C3800000000F03F0000F0FFFFFFEF470000F07F0000E03FFFFFEFC72081FF1F2DE9F0478AB006460F4600F0A1FDDFF859
:4017000098A004469AF900300D4601330FD03046394600F065FE50B14FF000084FF000093046394642464B4601F0C8FB20B9204629460AB0BDE8F08716499AF8004001228C
:401740000023CDE90467CDE9026701910092089364B9CDE90689684600F06EFE80B1089B9BB9DDE906010AB0BDE8F0874046494642464B4601F05AFA022CCDE90601EAD1F7
:4017800001F0ECFB21230360E9E701F0E7FB089B0360E6E7703800002081FF1F000000002DE9F04F144623F00047024657EA04000E468FB01D469C46214634D06E4B26F025
:4017C000004A9A459346B14626DC24D09F4223DC694B9F4200F08F80B9F1000FC0F28F804FF0000879BB644B9F4200F0A580634B9F4267D0BCF1804F00F0E283604B9C45C9
:4018000021D1B9F1000F1EDB104631460FB0BDE8F04F00F015BD62B10AF1404000F5801050EA0B0007D10346544918460FB0BDE8F08F5745CCDD53480FB0BDE8F04F00F008
:40184000FDBD4FF0000810463146CDF808C0009200F0BCFD009ADDF808C0BBF1000F20D04FEAD97909F1FF3958EA09037AD0464B9F4240F38F8003F104739F4240F31084D4
:40188000424B9A4540F39283BCF1000F40F3928337A1D1E900010B46024601F09DF80346C3E7BAF1000F04D0344B29F0404E9E45D6D1BCF1000FC0F2B683B9F1000F08DB4A
:4018C0000346B2E7BCF1000FC0F2528413463146ABE70AF1404A0AF5801A58EA0A0340F05E8402460B4600F0C3FE0B46024601F09DF9034699E700293FF46EAF8CE7244B53
:401900009F422CDCA3F154739F427FF769AF40F213403B15834240F34B84C3F58663033321FA03F000FA03F38B427FF459AF00F00100C0F1020855E70AF1404303F580134A
:4019400053EA0B0300F03983104B9A4540F36483BCF1000FC0F22E832346294665E74FF002083FE7104631463346BCE7AFF300809C7500883CE4377E0000F07F0000F03F53
:401980000000E03F743800000000E041FFFFEF3FFFFF3F43BAF5801F4FF0000205DACA4B01F01AF88A466FF034024FEA2A53C74ECAF3130AA3F2FF334AF07F571344B245DA
:4019C0000C9347F4401740F3D083C14B9A4540F307840026B4460C9BA7F5801701330C933946BC4B4FEACC0C6344D3E900AB52465B46CDF834C0CDE9060100F039FE5246A7
:401A00005B46CDE90801DDE9060100F033FE02460B460020B04901F009F902460B46DDE90801CDE90A2300F0D7FF02460B46CDE90223CDE904237B1043F0005303F5002325
:401A400099190020002306460F460293DDE902231046194632463B46CDE9000100F0BCFF02460B46DDE9080100F002FE5246CDE908015B463046394600F0FAFD02460B467B
:401A8000DDE9060100F0F4FD02460B46DDE9000100F0A2FF02460B46DDE9080100F0E8FDDDE90A2300F098FFDDE90423CDE906011046194600F090FF02460B4606460F46B8
:401AC00000F08AFF6EA3D3E9002382468B463046394600F081FF6CA3D3E9002300F0CAFD32463B4600F078FF69A3D3E9002300F0C1FD32463B4600F06FFF67A3D3E90023A1
:401B000000F0B8FD32463B4600F066FF64A3D3E9002300F0AFFD32463B4600F05DFF62A3D3E9002300F0A6FD02460B465046594600F052FFDDE9042306460F46DDE9000110
:401B400000F098FDDDE9062300F046FF32463B4600F090FDDDE9006782468B4632463B463046394600F038FF00225C4BCDE9080100F080FD52465B4600F07CFD02980F46E5
:401B80000646DDE9000132463B4600F025FF32463B46CDE90001DDE9060100F01DFF0022CDE906014D4B3046394600F061FDDDE9082300F05DFD02460B465046594600F0C9
:401BC00057FDDDE9042300F007FF02460B46DDE9060100F04FFD82468B46DDE9000152465B4600F047FD32A3D3E9002302980F46064600F0F1FE30A3D3E90023CDE9040104
:401C00003046394600F0E8FEDDE90023CDE906013046394600F02CFD02460B465046594600F026FD26A3D3E9002300F0D5FE02460B46DDE9060100F01DFDDDF834C0284B2D
:401C4000CDF818C06344D3E9002300F013FDCDE900010C9800F05AFE06460F46DDE90401204BDDF818C09C44DDE90023DCE900AB00F000FD52465B4636E000BFAFF30080C4
:401C8000EF4E454A287ECA3F65DBC9934A86CD3F01411DA96074D13F4D268F515555D53FFFAB6FDBB66DDB3F033333333333E33F000000E009C7EE3FF5015B14E02F3EBE92
:401CC000FD033ADC09C7EE3F000040438E98030079B60B00983800000000F03F000008408838000078380000CDE906AB00F0C2FC32463B4600F0BEFC029832463B46824621
:401D00008B4600F0B5FCDDE9062300F0B1FCDDE9042300F0ADFC02460B46DDE9000100F0A7FCCDE9020108F1FF3858EA09030CBFD54BD64B0022CDE904230023CDE90045CC
:401D40000093DDE90067204632463B46294600F08FFC52465B4600F03FFEDDE90223804689462046294600F037FE02460B464046494600F07FFC04460D4652463046394637
:401D80005B46CDE9024500F027FE06460F4620463B462946324600F06DFCBD4B824699428946884640F3138101F13F4303F5E003034340F0E581A0A3D3E90023DDE9020183
:401DC00000F058FC324604460D463B465046494600F04EFC02460B462046294601F08CF8002840F0CD814C462015A0F2FE304FF4801101414144C1F30A50A64CA0F2FF3539
:401E0000C1F3130BC0F5826003302C414BF4801B21EA040300224BFA00FB3946304600F027FC06460F46DDE902018BEAE87B0BEBD87B32463B464FEA0B5A00F01BFC80A3F7
:401E4000D3E90023002420460D4600F0C5FD3246804689463B462046294600F009FC02460B46DDE9020100F003FC77A3D3E9002300F0B2FD76A3D3E9002306460F462046B4
:401E8000294600F0A9FD02460B463046394600F0F1FB06460F4632463B464046494600F0E9FB42464B4604460D4600F0E1FB02460B463046394600F0DBFB2246804689465D
:401EC0002B462046294600F087FD63A3D3E9002306460F4600F080FD61A3D3E9002300F0C7FB32463B4600F077FD5FA3D3E9002300F0C0FB32463B4600F06EFD5CA3D3E9A8
:401F0000002300F0B5FB32463B4600F065FD5AA3D3E9002300F0AEFB32463B4600F05CFD02460B462046294600F0A2FB06460F4632463B462046294600F04EFD0022CDE95F
:401F400000014FF080433046394600F091FB02460B46DDE9000100F069FE424606460F464B462046294600F037FD42464B4600F081FB02460B463046394600F079FB2246A4
:401F80002B4600F075FB02460B4600203F4900F06FFB8A44BAF5801F0246C0F227815346DDE9040100F018FD03463EE4BCF1000FFFF66EAC0023194637E40B46334934E4D6
:401FC00033461046314600F007FD03462DE4324B21F000449C4240F3FA80304B0B4403430CD132463B4600F043FB02460B46DDE9020100F06DFF00283FF4F6AE20A3D3E9A0
:402000000023DDE9040100F0E7FC1DA3D3E9002300F0E2FC034608E4BCF1000FCADA234605F1004101E402460B460020174900F0FDFD42E4AFF30080FE822B654715973CCE
:4020400000000000432EE63FEF39FAFE422EE63F396CA80C615C20BED0A4BE726937663EF16BD2C541BDBB3E2CDE25AF6A56113F93BDBE166CC1663F3E5555555555C53F80
:4020800059F3F8C21F6EA5010000F0BF0000F03FFFFF8F40FFFF0F00FFCB904000346F3F634B9A4582DD634B9A453FF7EDAB0022604B00F0DDFA54A3D3E9002306460F4661
:4020C00000F08AFC52A3D3E90023CDE900013046394600F081FC3246CDE902013B463046394600F079FC002282468B4630463946514B00F071FC02460B4647A1D1E900018C
:4021000000F0B6FA32463B4600F066FC02460B4600204A4900F0ACFA02460B465046594600F05AFC3EA3D3E9002300F055FC02460B46DDE9020100F09BFA06460F46DDE96F
:40214000000132463B4600F095FADDE90023002082468B4600F08CFA02460B463046394600F086FACDE90201DDE50026B44637E4334600202F4900F059FD0346FFF755BB74
:4021800029A3D3E90023DDE9040100F025FC26A3D3E9002300F020FC0346FFF746BBB8F1010F03467FF441AB01F10041FFF73DBB00297FF446ABC3F58263033347FA03F08E
:4021C00000FA03F3BB4217D08846FFF710BB1B4B9C423FF709AEDDE90023924693462EE64FF480264FF0010CFFF7FABB5A4600F0BBF902460B46D3E600F00100C0F102087B
:40220000FFF7F5BAAFF30080000000604715F73F44DF5DF80BAE543E555555555555D53FFE822B654715F73F9C7500883CE4377EFEFFEF3F0000F03F0000D03F0000E03F78
:402240002DE9F041604E0C46B6460E40764505460B4600F098800029024676DD5FEA215E00F08180AEF2FF3EC3F313031EF0010F43F480135ED100273C46D10F01EB430376
:402280004FEA6E0E520016204FF4001165189D424FEAD2764FEA420202DC5B1B6C180F44013806EB43034FEA5101EFD1844620264FF000410AE0A34220D0D50F013E4FEAA2
:4022C000510105EB43034FEA420220D09C420CEB0105F0DA002D05EB010C09DBA0461B1B954288BF03F1FF334446521B0844E4E7BCF1000FF2DB04F10108F0E7954217D8A4
:40230000002D05EB010C48DB98460023ECE7134315D140087B1003F17F5303F50013FA0703EB0E57394648BF40F00040BDE8F0811C46C2E7D10F01EB430352009BE7411CEE
:4023400031D000F001031844E3E721F000460643ECD079BB8E46D30AAEF1150E5205002BF9D0DC0222D400215B00D80201F10101FAD5C1F10100C1F1200422FA04F4234304
:4023800086448A406EE702460B4600F025FB2A46234600F06FF9BDE8F081BCF1000FAADAA0460023A0E701373046B3E7202401200021E2E702460B4600F05AF902460B4668
:4023C00000F034FCB2E700BF0000F07F21F00041704700BF41F0004101F58010C00F704710B431F0004408D0114BA1F580129A4208D804205DF8044B704718B902205DF8A8
:40240000044B704701F1FF41094B01F5E0019942EFD9B4F5801F01D20320EBE7054B9C4201D00020E6E7B0FA80F04009E2E700BFFFFFDF7F0000F07F0020704700200149A3
:40244000704700BF0000F87FF0B5C1F30A5EAEF2FF35132D83B002460B460C464FEAD17607462EDC002D48DB3C49294101EA030010432BD049080B4053EA02070CD04FF429
:402480008023132D24EA010143FA05F444EA01040CBF4FF0004700273149234601EBC606D6E900453A462046294600F0E3F8CDE90001DDE9000122462B4600F0D9F803B0BE
:4024C000F0BD332D06DDB5F5806F43D01046194603B0F0BDAEF2134E4FF0FF3121FA0EF10142F3D049080142D6D04FF0804320EA010143FA0EF70F43CEE721F00041014374
:40250000E4D0C3F3130141EA000CCCF1000141EA0C0C13495C0C4FEA1C3C0CF4002C640401EBC6014CEA0403D1E900452046294600F0A0F8CDE90001DDE9000122462B4659
:4025400000F096F8024621F0004141EAC67310461946BDE700F08EF8BAE700BFFFFF0F00A838000000000000F8B5C1F30A5604460D460B46174616BB21F00043034332D04A
:402580000022314B00F028FA304A044697420D460B4637DB40F2FE72C1F30A56363E3E44964215DD24A1D1E9000122462B4600F053F821A3D3E9002300F00EFAF8BD40F28C
:4025C000FF72964224D040F2FE723E449642E9DC002E09DD23F0FF4323F4E00343EA065520462946F8BDF8BD16F1350F15DA4CF250339F42D6DC12A1D1E9000122462B46DE
:4026000000F02AF80EA3D3E9002300F0E5F9F8BD02460B4600F02EF8F8BD23F0FF4323F4E003363643EA0655204629460022084B00F0D2F9F8BD00BF9C7500883CE4377EE7
:4026400059F3F8C21F6EA50100005043B03CFFFF0000903CAFF3008003F0004321F0004243EA0201704700BF81F0004102E000BF83F0004330B54FEA41044FEA430594EA1C
:40268000050F08BF90EA020F1FBF54EA000C55EA020C7FEA645C7FEA655C00F0E2804FEA5454D4EB5555B8BF6D420CDD2C4480EA020281EA030382EA000083EA010180EAAD
:4026C000020281EA0303362D88BF30BD11F0004F4FEA01314FF4801C4CEA113102D0404261EB410113F0004F4FEA03334CEA133302D0524263EB430394EA050F00F0A780FA
:40270000A4F10104D5F1200E0DDB02FA0EFC22FA05F2801841F1000103FA0EF2801843FA05F359410EE0A5F120050EF1200E012A03FA0EFC28BF4CF0020C43FA05F3C01895
:4027400051EBE37101F0004507D54FF0000EDCF1000C7EEB00006EEB0101B1F5801F1BD3B1F5001F0CD349085FEA30004FEA3C0C04F101044FEA445212F5800F80F09A80C2
:40278000BCF1004F08BF5FEA500C50F1000041EB045141EA050130BD5FEA4C0C404141EB010111F4801FA4F10104E9D191F0000F04BF01460020B1FA81F308BF2033A3F102
:4027C0000B03B3F120020CDA0C3208DD02F1140CC2F10C0201FA0CF021FA02F10CE002F11402D8BFC2F1200C01FA02F120FA0CFCDCBF41EA0C019040E41AA2BF01EB045165
:40280000294330BD6FEA04041F3C1CDA0C340EDC04F11404C4F1200220FA04F001FA02F340EA030021FA04F345EA030130BDC4F10C04C4F1200220FA02F001FA04F340EA5E
:402840000300294630BD21FA04F0294630BD94F0000F83F4801306BF81F480110134013D4EE77FEA645C18BF7FEA655C29D094EA050F08BF90EA020F05D054EA000C04BF95
:402880001946104630BD91EA030F1EBF0021002030BD5FEA545C05D14000494128BF41F0004130BD14F580043CBF01F5801130BD01F0004545F0FE4141F470014FF0000074
:4028C00030BD7FEA645C1ABF194610467FEA655C1CBF0B46024650EA013406BF52EA033591EA030F41F4002130BD00BF90F0000F04BF0021704730B54FF4806404F13204FE
:402900004FF000054FF0000150E700BF90F0000F04BF0021704730B54FF4806404F1320410F0004548BF40424FF000013EE700BF42004FEAE2014FEA31014FEA02701FBF78
:4029400012F07F4393F07F4F81F06051704792F0000F14BF93F07F4F704730B54FF4607401F0004521F0004120E700BF50EA010208BF704730B54FF000050AE050EA0102A8
:4029800008BF704730B511F0004502D5404261EB41014FF4806404F132045FEA915C3FF4DCAE4FF003025FEADC0C18BF03325FEADC0C18BF033202EBDC02C2F1200300FAE9
:4029C00003FC20FA02F001FA03FE40EA0E0021FA02F11444C1E600BF70B54FF0FF0C4CF4E06C1CEA11541DBF1CEA135594EA0C0F95EA0C0F00F0DEF82C4481EA030621EA34
:402A00004C5123EA4C5350EA013518BF52EA033541F4801143F4801338D0A0FB02CE4FF00005E1FB02E506F00042E0FB03E54FF00006E1FB03569CF0000F18BF4EF0010E54
:402A4000A4F1FF04B6F5007F64F5407404D25FEA4E0E6D4146EB060642EAC62141EA55514FEAC52040EA5E504FEACE2EB4F1FD0C88BFBCF5E06F1ED8BEF1004F08BF5FEA19
:402A8000500E50F1000041EB045170BD06F0004646EA010140EA020081EA0301B4EB5C04C2BFD4EB0C0541EA045170BD41F480114FF0000E013C00F3AB8014F1360FDEBF6E
:402AC000002001F0004170BDC4F10004203C35DA0C341BDC04F11404C4F1200500FA05F320FA04F001FA05F240EA020001F0004221F0004110EBD37021FA04F642EB0601EB
:402B00005EEA430E08BF20EAD37070BDC4F10C04C4F1200500FA04F320FA05F001FA04F240EA020001F0004110EBD37041F100015EEA430E08BF20EAD37070BDC4F12005A8
:402B400000FA05F24EEA020E20FA04F301FA05F243EA020321FA04F001F0004121FA04F220EA020000EBD3705EEA430E08BF20EAD37070BD94F0000F0FD101F00046400097
:402B800041EB010111F4801F08BF013CF7D041EA060195F0000F18BF704703F00046520043EB030313F4801F08BF013DF7D043EA0603704794EA0C0F0CEA135518BF95EAB9
:402BC0000C0F0CD050EA410618BF52EA4306D1D181EA030101F000414FF0000070BD50EA410606BF1046194652EA430619D094EA0C0F02D150EA013613D195EA0C0F05D1B8
:402C000052EA03361CBF104619460AD181EA030101F0004141F0FE4141F470014FF0000070BD41F0FE4141F4780170BD70B54FF0FF0C4CF4E06C1CEA11541DBF1CEA135596
:402C400094EA0C0F95EA0C0F00F0A7F8A4EB050481EA030E52EA03354FEA013100F088804FEA03334FF0805545EA131343EA12634FEA022245EA111545EA10654FEA002678
:402C80000EF000419D4208BF964244F1FD0404F5407402D25B084FEA3202B61A65EB03055B084FEA32024FF480104FF4002CB6EB020E75EB030E22BFB61A754640EA0C00D2
:402CC0005B084FEA3202B6EB020E75EB030E22BFB61A754640EA5C005B084FEA3202B6EB020E75EB030E22BFB61A754640EA9C005B084FEA3202B6EB020E75EB030E22BFF9
:402D0000B61A754640EADC0055EA060E18D04FEA051545EA16754FEA06164FEAC30343EA52734FEAC2025FEA1C1CC0D111F4801F0BD141EA00014FF000004FF0004CB6E752
:402D400011F4801F04BF01430020B4F1FD0C88BFBCF5E06F3FF6AFAEB5EB030C04BFB6EB020C5FEA500C50F1000041EB045170BD0EF0004E4EEA113114EB5C04C2BFD4EBE7
:402D80000C0541EA045170BD41F480114FF0000E013C90E645EA060E8DE60CEA135594EA0C0F08BF95EA0C0F3FF43BAF94EA0C0F0AD150EA01347FF434AF95EA0C0F7FF41E
:402DC00025AF104619462CE795EA0C0F06D152EA03353FF4FDAE1046194622E750EA410618BF52EA43067FF4C5AE50EA41047FF40DAF52EA43057FF4EBAE12E74FF0FF3C42
:402E000006E000BF4FF0010C02E000BF4FF0010C4DF804CD4FEA410C7FEA6C5C4FEA430C18BF7FEA6C5C1BD001B050EA410C0CBF52EA430C91EA030F02BF90EA020F0020E5
:402E4000704710F1000F91EA030F58BF994208BF90422CBFD8176FEAE37040F0010070474FEA410C7FEA6C5C02D150EA013C07D14FEA430C7FEA6C5CD6D152EA033CD3D0AE
:402E80005DF8040B704700BF8446104662468C461946634600E000BF01B5FFF7B7FF002848BF10F1000F01BD4DF808EDFFF7F4FF0CBF012000205DF808FB00BF4DF808ED18
:402EC000FFF7EAFF34BF012000205DF808FB00BF4DF808EDFFF7E0FF94BF012000205DF808FB00BF4DF808EDFFF7CEFF94BF012000205DF808FB00BF4DF808EDFFF7C4FF53
:402F000034BF012000205DF808FB00BF4FEA410212F5001215D211D56FF47873B3EB625212D94FEAC12343F0004343EA505311F0004F23FA02F018BF404270474FF0000048
:402F4000704750EA013005D111F0004008BF6FF0004070474FF00000704700BF014B1868704700BF8481FF1F0E4B70B51E460E4C0025E41AA410A54204D056F82530984791
:402F80000135F8E700F0B4FC084B094C1E46E41AA4100025A54204D056F8253098470135F8E770BDFC380000FC380000FC3800000439000010B5431E0A44914204D011F8FD
:402FC000014B03F8014FF8E710BD03460244934202D003F8011BFAE7704700000EB400B54FF402719CB0ADF814106FF00041049107914FF6FF711DABADF81610084953F8B6
:40300000042B02900690086802A9019300F064F8029B00221A701CB05DF804EB03B070478481FF1F2DE9F0478E688246B3420C469046994640D38A8912F4906F3AD025688F
:40304000096902236F1A656905EB450595FBF3F57B1C4B449D4238BF1D4653050FD5294600F030FB064698B121693A46FFF7A2FFA38923F4906343F08003A38113E02A46E2
:4030800000F076FB064670B95046216900F0D6FA0C23CAF80030A3894FF0FF3043F04003A381BDE8F08726613E4426604E466561ED1BA560B14500D24E4632462068414610
:4030C00000F0A0FAA36800209B1BA36023681E442660BDE8F08700002DE9F0439DB003938B8906461C060D4690460CD50B6953B9402100F0E7FA2860286110B90C233360CD
:40310000CCE040236B610023099320238DF8293030238DF82A3043461C4613F8012B1AB9B4EB08090FD002E0252AF5D1F8E73046294642464B46FFF775FF013000F0A98096
:40314000099B4B4409932378002B00F0A28000234FF0FF3204930793059206938DF853301A9304F101084446DFF8489121784846052200F039FA08F10108049B30B1C9EB20
:4031800000000122824013430493ECE7D80644BF20228DF85320190744BF2B228DF8532022782A2A02D0079923460EE0039A0134111D12680391002ABBBF524243F00203B2
:4031C00007920792B8BF04930AE01C4622780133303A092A03D80A2000FB0121F5E7079123782E2B1AD163782A2B0AD1039B02341A1D1B680392002BB8BF4FF0FF3305938A
:403200000CE0611C00220C4623780131303B092B03D80A2000FB0232F5E70592DFF8988021784046032200F0DFF938B1049AC8EB00004023834013430493013421781A4826
:40324000062204F101088DF8281000F0CDF988B1164B33B9039B073323F007030833039313E003AB0093304604A92A46104BAFF3008007E003AB0093304604A92A460C4B13
:4032800000F092F8421C074603D0099B3B44099341E7AB895B0601D4099801E04FF0FF301DB0BDE8F08300BFC43800000000000025300000BA380000C03800002DE9F843A5
:4032C00091461F468A680B6906469342B8BF1346C9F8003091F843200C46DDF8208012B10133C9F800302368990642BFD9F800300233C9F80030256815F006051CD094F848
:4033000043302268003318BF012392061FD5E118302081F843005A1C94F845102244023382F8431013E03046394604F119020123C047013007D00135E368D9F800209B1AC0
:403340009D42F0DBDBE74FF0FF30BDE8F8833046394604F14302C0470130F4D02268D9F80050E36802F00602042A08BF5D1B2269A3680CBF25EAE57500259342C4BF9B1ACF
:40338000ED184FF00009A9450ADA3046394604F11A020123C0470130D5D009F10109F2E70020BDE8F88300002DE9FF410C461746227E98466E2A06460A9B01F1430100F098
:4033C000B08012D8632A23D00AD8002A00F0BD80582A40F0CC8084F84520DFF804E257E0642A1ED0692A1CD0C1E0732A00F0B18009D86F2A2ED0702A40F0B980226842F096
:40340000200222603FE0752A24D0782A3BD0AEE01A6804F14205111D1960136884F84230A9E020681A6810F0800F02D0101D186008E010F0400F02F10400186002D0B2F971
:40344000003000E01368002B3EDA2D225B4284F8432039E020681A6810F0800F02D0101D186007E010F0400F02F10400186001D0138800E01368227EDFF864E16F2A0CBFFE
:4034800008220A221CE07822DFF858E184F845202268186812F0800F00F104051D6003D1550601D5038800E00368D00744BF42F0200222601BB9226822F02002226010224C
:4034C000002084F8430002E0DFF814E10A226568002DA8BF2068A560A4BF20F00400206003B965B10D46B3FBF2F002FB10331EF8033005F8013D03460028F4D100E00D464C
:40350000082A0BD12368DA0708D5236962689A42DEBF302305F8013C05F1FF35491B21612EE025681A6815F0800F606903D0151D1D60136808E015F0400F02F104051D609C
:40354000136801D0188000E01860002323610D4616E01A68111D1960156800212846626800F042F808B1401B6060636804E004F1420584F8422001232361002384F843309F
:40358000CDF800803046214603AA3B46FFF796FE013002D14FF0FF301FE0304639462A462369C0470130F5D023689B0705D4E068039B9842B8BF18460FE00025E368039A3B
:4035C0009B1A9D42F3DA3046394604F119020123C0470130DED00135F0E704B0BDE8F081CB380000DC38000010B5C9B202449042034605D01C7801308C42F8D1184610BD70
:40360000002010BD814210B501EB020301D3421E0BE09842FBD28118D21AD34204D013F8014D01F8014DF8E710BD994204D011F8014B02F8014FF8E710BD000030B500299C
:403640003CD051F8042C0B1F1D49002AB8BF9B180A680C4612B95A600B6030BD93420DD219685818904201BF5A5852181A60426823605A6030BD994203D80A4651680029B7
:40368000F9D1146815199D420AD11B682344D0188842136012D10868034413604B680CE002D90C23036030BD1C681819884201BF08684968001918605960536030BD00BFBE
:4036C000B881FF1F70B5CC1C24F0030408340C2C38BF0C24002C064603DA0C233360002070BD8C42F9D3204A136810461946A1B10A68121B0ED40B2A03D90A608B188C504B
:403700001FE08B420BBF5A684A6802605A6018BF0B4616E00B464968E9E7144D2B681BB9304600F04BF828603046214600F046F8421C0346D1D0C51C25F0030585420AD187
:403740001C6003F10B001A1D20F00700821A0AD05142995070BD3046E91A00F02FF80130BBD02B46ECE770BDB881FF1FB481FF1FF8B5074615460E4621B91146BDE8F84043
:40378000FFF7A0BF1AB9FFF759FF2846F8BD00F025F8A8420ED238462946FFF793FF044650B131462A46FFF705FC38463146FFF745FF01E03046F8BD2046F8BD38B5064C66
:4037C0000023054608462360FCF7FCFD431C02D1236803B12B6038BDF481FF1F51F8040C0028BEBF091851F8043CC01804387047000000000000000044203D20496E666960
:403800006E69650044203D202564206D6D0000002020202020202020202020202020000049203D2025630000505100401000F05100401000000001400010001401400008CA
:4038400000400140000A004C014000020050014020000000011121314161536373000000080901010507070404000000706F77007371727400000000000000000000000000
:403880000000004003B8E23F000000000000000006D0CF43EBFD4C3E000000000000F03F000000000000F83F000000000000304300000000000030C34300232D302B2000B8
:4038C000686C4C006566674546470030313233343536373839414243444546003031323334353637383961626364656600000000F8B500BFF8BC08BC9E4670474D000000D4
:4039000041040000F8B500BFF8BC08BC9E46704729000000283900000881FF1F80000000700000000000000000000000F881FF1F0000E02EC05D00001800000000366E0123
:40394000010000000000000000000000000000000000000000000000000000000000000000000000B838000000000000000000000000000000000000000000000000000056
:403980000000000000000000000000000000000000000000000000000000000000000000000000002481FF1F00000000000000000000000000000000000000000000000044
:4039C00000000000000000000000000000000000000000000000000000000000000000000000000000000000000000000000000000000000000000000000000000000000C7
:403A00000000000000000000000000000000000000000000000000000000000000000000000000000000000000000000000000000000000000000000000000000000000086
:403A40000000000000000000000000000000000000000000000000000000000000000000000000000000000000000000000000000000000000000000000000000000000046
:403A80000000000000000000000000000000000000000000000000000000000000000000000000000000000000000000000000000000000000000000000000000000000006
:020000040003F7
:0200000480007A
:400000000A5200400464004003650040020101404A0201402A030140420401402905014040060140290701403108014026090140010F0140371401402E1501404C160140B9
:400040002E1701405E1801403E1901405A1A0140481B0140094001400B4101400342014001430140054401400148014017490140064C0140074D0140075001400151014028
:400080000001082009200C4018381911206021A030046008820F840F870D88728767896B8B388308E6010301070C0B021A0122022707290831023201330434023501370878
:4000C0003F104020410445D14725483349FF4AFF4BFF4DA04F04501852805407580459045A045B045C115D115F01604062C06440654066C068C06AC06CC06EC08B019B02A8
:400100009F03B501B702C010C106C5D5C610C702C81BC9FFCAFFCBFFCDA0CF04D018D904DA04DC20DD02DF01E040E2C0E440E540E6C0E8C0EAC0ECC0EEC00F0416801D20BF
:400140001F2420082280264427882F243020314038203E103F0640014522482849014F05501C550A57015E805F29768084048E048F109F80A308B380C240C410CA60CC0C97
:40018000CEE4D0A8D204D6F0E240E640EE2007020B010D0812011B0C21012A022F023002310433023508360137013F04405349FF4AFF4BFF4F0150185280540758045904A9
:4001C0005A045B045C225D205F016040624064406540668068806A806C806E808B019601A101B301B601C052C9FFCAFFCBFFCD83CE03CF01D018D804D904DA04DC11DF01F0
:40020000E040E240E440E540E680E880EA80EC80EE800A400D080E101110180119421F8020402254272029422F803020386839103E10410446044B404F4059015AA87240FB
:4002400090289401961099019D409F30A020A108A308AA80C228C402CA89CC04CE2ED022D218D60F0F0117013301405249FF4AFF4BFF4D834E034F015018560859045A04BC
:400280005B045F016040624064406540668068806A806C806E809202960197029B01A903AA02B002B303B601B828BA80BE15C053C5ECC702C813C9FFCAFFCBFFCD83CE03BA
:4002C000CF01D018D280D401D804D904DA04DB04DF01E040E240E440E540E680E880EA80EC80EE8009080B401204181019801A401B102108260427102B08310833103608FD
:400300003F404104460449054B404F405104520C59055A405D8066807340950897409E049F10A308C20CC402CA04CC46CE10D022D218D61BD810001F01040401050808036E
:4003400009080E030F0111081402150218131A0C1C1F1D061F01201C21072203240425012706280C29062C082D07310832103307340F3AA03E0456025711580459045B047B
:400380005C335D305F018A018B019401B001B301BE01D804D904DF010020011004500508074009080C480E051480168217241A401D201E25210824402504260A2EA5374591
:4003C00039103C403D043E125E206D046E106F11748076267724C0F2C2E4C4F0CAF0CCD0CEF4D620E60107010D031A011B023201340135034046410349FF4AFF4BFF4DA00C
:400400004F015018580459045A045F016040628064406540668068406A506BA86C406D206E506FA8C042C106C9FFCAFFCBFFCDAFCE07CF01D018DA04DB04DF01E040E2800D
:40044000E440E540E680E840EA50EBA8EC40ED20EE50EFA809201828200421203310388440104240450247104A044F206C026D046E206F8074A075047780801483808402D3
:400480008610882089048C808D048F80909092409B10A102A204A310A840C202CC04CE0AD0A3D224E004E230E401E670EA01EE080201220128012F01300133013E014042B8
:4004C000410649FF4AFF4BFF4DAF4E074F0150185280580459045A045B045F016040628064406540668068406A506BA86C406D206E506FA88C019B029C029F01A201A60242
:40050000B101B201B602B702BE44C046C103C504C6C2C70EC81FC9FFCAFFCBFFCDAFCE07CF01D018D407D804D904DA04DB04DF05E040E280E440E540E680E840EA50EBA84D
:40054000EC40ED20EE50EFA800800680098010A01640172019441D021E402080218027202E8030A0401041024502471048A04A044F205148521059445A1061086210764058
:400580007A048140821090109A809B10A204A310C011C201C45CCA10CC0CD0A3D224D60ED806DE04010704480635070808200AC20D060F0114F815011706189019061A2C38
:4005C0001D061F012104270828F829022F013001310732E03418350836063B023E403F10402541044206440145E046C0480A49FF4AFF4BFF4C624DA04EF04F41500C5804EF
:4006000059045A045C335D035F016640670269106A306B106D106E106F12810182018F01B101B601BF01C021C504C6C2C70EC81DC9FFCAFFCBFFCDA0CF01D018D40BD804B2
:40064000D904DA04DB04DF01E040E280E440E540E680E840EA50EBA8EC40ED20EE50EFA802400410050807040E14171018011C101D811E042201251027402C802D802F24A5
:4006800034043760380139803A043B083C403D083E0140C64140444445A048104D804E8A51485250572058105A426108621088129251941098409A049B309C809D089F4074
:4006C000A080A124A20AA418C068C260C440CAF0CC70CED9D0BCD230D60DD80608020E0612021E0120013001320434023E104060410249FF4AFF4BFF4DA04F0450185280DE
:4007000058045A045B045F01604062C06440654066C068C06AC06CC06EC082048418870488088B028EC3901C92E2944498809B069C109F01A0FFA4C0A8E7AA18AB01AC1C83
:40074000AEE1B0C0B220B301B41FB706B808BA20BF04C060C102C515C640C702C81BC9FFCAFFCBFFCDAFCE0FCF04D018D418D604D804D904DA04DB04DC03DD30DF01E04001
:40078000E2C0E440E540E6C0E8C0EAC0ECC0EEC00010030105810604072009820C800D010E2411011444174418141B011C081F09250827012F083680371038013B023F281B
:4007C0004208450846284A084D014E084F08560857105C01650266A071028180820883108701888489018B0192049404984499819A849B649C809D02A080A290A801AD0237
:40080000B008B108B214B510B680C0F3C2F9C4F8CA20CC30CE60D024D224D680D8B0E40832443580634066828240CC70D680D8C0E680578087408D808E02960897409D80BF
:400840009E02B280D440E6409608AB80EE2096082B0857088308CA08D4029608531154405D01630266017004740883018501870188408B108C0C8E01AE04D4E0D6C0D88012
:40088000DC80DE20E210E630EE10084058016708C202D602D8018704880197089C01B040E404EA01000F08060A070C0910091A011C09003E0001010001000000000C0C004B
:4008C0000C00000040ABAB00A0000000007F7F0000000000007B7B007B00000000E0E000E00002000004040004004000000000000000000000000000000000000000000059
:4009000000000000000000000000000000000000000000000000000000000000000000000000000000000000000000000000000000000000000000000000000000000000B7
:400940000000000000000000000000000000000000000000000000000000000000000000000000000000000000000000000000000000000000000000000000000000000077
:400980000000000000000000000000000000000000000000000000000000000000000000000000000000000000000000000000000000000000000000000000000000000037
:4009C00000000000000000000000000000000000000000000000000000000000000000000000000000000000000000000000000000000000000000000000000000000000F7
:0200000490006A
:0400000000004005B7
:0200000490105A
:04000000BC90ACAF55
:0200000490303A
:02000000BD3011
:0200000490402A
:4000000000000000000000000000000000000000000000000000000000000000000000000000000000000000000000000000000000000000000000000000000000000000C0
:400040000000000000000000000000000000000000000000000000000000000000000000000000000000000000000000000000000000000000000000000000000000000080
:400080000000000000000000000000000000000000000000000000000000000000000000000000000000000000000000000000000000000000000000000000000000000040
:4000C0000000000000000000000000000000000000000000000000000000000000000000000000000000000000000000000000000000000000000000000000000000000000
:0200000490501A
:0C00000000012E12306900012E2BED993A
:00000001FF